{
  "_format": "hh-sol-artifact-1",
  "contractName": "Withdrawable",
  "sourceName": "contracts/Withdrawable.sol",
  "abi": [
    {
      "anonymous": false,
      "inputs": [
        {
          "indexed": true,
          "internalType": "address",
          "name": "_from",
          "type": "address"
        },
        {
          "indexed": true,
          "internalType": "address",
          "name": "_assetAddress",
          "type": "address"
        },
        {
          "indexed": false,
          "internalType": "uint256",
          "name": "amount",
          "type": "uint256"
        }
      ],
      "name": "LogWithdraw",
      "type": "event"
    },
    {
      "anonymous": false,
      "inputs": [
        {
          "indexed": true,
          "internalType": "address",
          "name": "previousOwner",
          "type": "address"
        },
        {
          "indexed": true,
          "internalType": "address",
          "name": "newOwner",
          "type": "address"
        }
      ],
      "name": "OwnershipTransferred",
      "type": "event"
    },
    {
      "inputs": [],
      "name": "owner",
      "outputs": [
        {
          "internalType": "address",
          "name": "",
          "type": "address"
        }
      ],
      "stateMutability": "view",
      "type": "function"
    },
    {
      "inputs": [],
      "name": "renounceOwnership",
      "outputs": [],
      "stateMutability": "nonpayable",
      "type": "function"
    },
    {
      "inputs": [
        {
          "internalType": "address",
          "name": "newOwner",
          "type": "address"
        }
      ],
      "name": "transferOwnership",
      "outputs": [],
      "stateMutability": "nonpayable",
      "type": "function"
    },
    {
      "inputs": [
        {
          "internalType": "address",
          "name": "_assetAddress",
          "type": "address"
        }
      ],
      "name": "withdraw",
      "outputs": [],
      "stateMutability": "nonpayable",
      "type": "function"
    }
  ],
  "bytecode": "0x608060405234801561001057600080fd5b5061002d61002261003260201b60201c565b61003a60201b60201c565b6100fe565b600033905090565b60008060009054906101000a900473ffffffffffffffffffffffffffffffffffffffff169050816000806101000a81548173ffffffffffffffffffffffffffffffffffffffff021916908373ffffffffffffffffffffffffffffffffffffffff1602179055508173ffffffffffffffffffffffffffffffffffffffff168173ffffffffffffffffffffffffffffffffffffffff167f8be0079c531659141344cd1fd0a4f28419497f9722a3daafe3b4186f6b6457e060405160405180910390a35050565b610d218061010d6000396000f3fe608060405234801561001057600080fd5b506004361061004c5760003560e01c806351cff8d914610051578063715018a61461006d5780638da5cb5b14610077578063f2fde38b14610095575b600080fd5b61006b600480360381019061006691906107db565b6100b1565b005b61007561026b565b005b61007f61027f565b60405161008c9190610817565b60405180910390f35b6100af60048036038101906100aa91906107db565b6102a8565b005b6100b961032b565b60008073ffffffffffffffffffffffffffffffffffffffff168273ffffffffffffffffffffffffffffffffffffffff160361015a5760003090508073ffffffffffffffffffffffffffffffffffffffff163191503373ffffffffffffffffffffffffffffffffffffffff166108fc839081150290604051600060405180830381858888f19350505050158015610153573d6000803e3d6000fd5b5050610202565b8173ffffffffffffffffffffffffffffffffffffffff166370a08231306040518263ffffffff1660e01b81526004016101939190610817565b602060405180830381865afa1580156101b0573d6000803e3d6000fd5b505050506040513d601f19601f820116820180604052508101906101d49190610868565b905061020133828473ffffffffffffffffffffffffffffffffffffffff166103a99092919063ffffffff16565b5b8173ffffffffffffffffffffffffffffffffffffffff163373ffffffffffffffffffffffffffffffffffffffff167f9207361cc2a04b9c7a06691df1eb87c6a63957ae88bf01d0d18c81e3d12720998360405161025f91906108a4565b60405180910390a35050565b61027361032b565b61027d600061042f565b565b60008060009054906101000a900473ffffffffffffffffffffffffffffffffffffffff16905090565b6102b061032b565b600073ffffffffffffffffffffffffffffffffffffffff168173ffffffffffffffffffffffffffffffffffffffff160361031f576040517f08c379a000000000000000000000000000000000000000000000000000000000815260040161031690610942565b60405180910390fd5b6103288161042f565b50565b6103336104f3565b73ffffffffffffffffffffffffffffffffffffffff1661035161027f565b73ffffffffffffffffffffffffffffffffffffffff16146103a7576040517f08c379a000000000000000000000000000000000000000000000000000000000815260040161039e906109ae565b60405180910390fd5b565b61042a8363a9059cbb60e01b84846040516024016103c89291906109ce565b604051602081830303815290604052907bffffffffffffffffffffffffffffffffffffffffffffffffffffffff19166020820180517bffffffffffffffffffffffffffffffffffffffffffffffffffffffff83818316178352505050506104fb565b505050565b60008060009054906101000a900473ffffffffffffffffffffffffffffffffffffffff169050816000806101000a81548173ffffffffffffffffffffffffffffffffffffffff021916908373ffffffffffffffffffffffffffffffffffffffff1602179055508173ffffffffffffffffffffffffffffffffffffffff168173ffffffffffffffffffffffffffffffffffffffff167f8be0079c531659141344cd1fd0a4f28419497f9722a3daafe3b4186f6b6457e060405160405180910390a35050565b600033905090565b600061055d826040518060400160405280602081526020017f5361666545524332303a206c6f772d6c6576656c2063616c6c206661696c65648152508573ffffffffffffffffffffffffffffffffffffffff166105c29092919063ffffffff16565b90506000815111156105bd578080602001905181019061057d9190610a2f565b6105bc576040517f08c379a00000000000000000000000000000000000000000000000000000000081526004016105b390610ace565b60405180910390fd5b5b505050565b60606105d184846000856105da565b90509392505050565b60608247101561061f576040517f08c379a000000000000000000000000000000000000000000000000000000000815260040161061690610b60565b60405180910390fd5b610628856106ee565b610667576040517f08c379a000000000000000000000000000000000000000000000000000000000815260040161065e90610bcc565b60405180910390fd5b6000808673ffffffffffffffffffffffffffffffffffffffff1685876040516106909190610c5d565b60006040518083038185875af1925050503d80600081146106cd576040519150601f19603f3d011682016040523d82523d6000602084013e6106d2565b606091505b50915091506106e2828286610711565b92505050949350505050565b6000808273ffffffffffffffffffffffffffffffffffffffff163b119050919050565b6060831561072157829050610771565b6000835111156107345782518084602001fd5b816040517f08c379a00000000000000000000000000000000000000000000000000000000081526004016107689190610cc9565b60405180910390fd5b9392505050565b600080fd5b600073ffffffffffffffffffffffffffffffffffffffff82169050919050565b60006107a88261077d565b9050919050565b6107b88161079d565b81146107c357600080fd5b50565b6000813590506107d5816107af565b92915050565b6000602082840312156107f1576107f0610778565b5b60006107ff848285016107c6565b91505092915050565b6108118161079d565b82525050565b600060208201905061082c6000830184610808565b92915050565b6000819050919050565b61084581610832565b811461085057600080fd5b50565b6000815190506108628161083c565b92915050565b60006020828403121561087e5761087d610778565b5b600061088c84828501610853565b91505092915050565b61089e81610832565b82525050565b60006020820190506108b96000830184610895565b92915050565b600082825260208201905092915050565b7f4f776e61626c653a206e6577206f776e657220697320746865207a65726f206160008201527f6464726573730000000000000000000000000000000000000000000000000000602082015250565b600061092c6026836108bf565b9150610937826108d0565b604082019050919050565b6000602082019050818103600083015261095b8161091f565b9050919050565b7f4f776e61626c653a2063616c6c6572206973206e6f7420746865206f776e6572600082015250565b60006109986020836108bf565b91506109a382610962565b602082019050919050565b600060208201905081810360008301526109c78161098b565b9050919050565b60006040820190506109e36000830185610808565b6109f06020830184610895565b9392505050565b60008115159050919050565b610a0c816109f7565b8114610a1757600080fd5b50565b600081519050610a2981610a03565b92915050565b600060208284031215610a4557610a44610778565b5b6000610a5384828501610a1a565b91505092915050565b7f5361666545524332303a204552433230206f7065726174696f6e20646964206e60008201527f6f74207375636365656400000000000000000000000000000000000000000000602082015250565b6000610ab8602a836108bf565b9150610ac382610a5c565b604082019050919050565b60006020820190508181036000830152610ae781610aab565b9050919050565b7f416464726573733a20696e73756666696369656e742062616c616e636520666f60008201527f722063616c6c0000000000000000000000000000000000000000000000000000602082015250565b6000610b4a6026836108bf565b9150610b5582610aee565b604082019050919050565b60006020820190508181036000830152610b7981610b3d565b9050919050565b7f416464726573733a2063616c6c20746f206e6f6e2d636f6e7472616374000000600082015250565b6000610bb6601d836108bf565b9150610bc182610b80565b602082019050919050565b60006020820190508181036000830152610be581610ba9565b9050919050565b600081519050919050565b600081905092915050565b60005b83811015610c20578082015181840152602081019050610c05565b60008484015250505050565b6000610c3782610bec565b610c418185610bf7565b9350610c51818560208601610c02565b80840191505092915050565b6000610c698284610c2c565b915081905092915050565b600081519050919050565b6000601f19601f8301169050919050565b6000610c9b82610c74565b610ca581856108bf565b9350610cb5818560208601610c02565b610cbe81610c7f565b840191505092915050565b60006020820190508181036000830152610ce38184610c90565b90509291505056fea2646970667358221220fc89d25662d5c7f92b8d4fa5ecb7355b0c917a8d3930bb4a5f8734bf21f9db2564736f6c63430008110033",
  "linkReferences": {},
  "deployedLinkReferences": {}
}