{
  "_format": "hh-sol-artifact-1",
  "contractName": "Flashloan",
  "sourceName": "contracts/Flashloan.sol",
  "abi": [
    {
      "inputs": [
        {
          "internalType": "address",
          "name": "_addressProvider",
          "type": "address"
        }
      ],
      "stateMutability": "nonpayable",
      "type": "constructor"
    },
    {
      "anonymous": false,
      "inputs": [
        {
          "indexed": true,
          "internalType": "address",
          "name": "_from",
          "type": "address"
        },
        {
          "indexed": true,
          "internalType": "address",
          "name": "_assetAddress",
          "type": "address"
        },
        {
          "indexed": false,
          "internalType": "uint256",
          "name": "amount",
          "type": "uint256"
        }
      ],
      "name": "LogWithdraw",
      "type": "event"
    },
    {
      "anonymous": false,
      "inputs": [
        {
          "indexed": true,
          "internalType": "address",
          "name": "previousOwner",
          "type": "address"
        },
        {
          "indexed": true,
          "internalType": "address",
          "name": "newOwner",
          "type": "address"
        }
      ],
      "name": "OwnershipTransferred",
      "type": "event"
    },
    {
      "inputs": [],
      "name": "addressesProvider",
      "outputs": [
        {
          "internalType": "contract ILendingPoolAddressesProvider",
          "name": "",
          "type": "address"
        }
      ],
      "stateMutability": "view",
      "type": "function"
    },
    {
      "inputs": [
        {
          "internalType": "address",
          "name": "_reserve",
          "type": "address"
        },
        {
          "internalType": "uint256",
          "name": "_amount",
          "type": "uint256"
        },
        {
          "internalType": "uint256",
          "name": "_fee",
          "type": "uint256"
        },
        {
          "internalType": "bytes",
          "name": "_params",
          "type": "bytes"
        }
      ],
      "name": "executeOperation",
      "outputs": [],
      "stateMutability": "nonpayable",
      "type": "function"
    },
    {
      "inputs": [
        {
          "internalType": "address",
          "name": "_asset",
          "type": "address"
        }
      ],
      "name": "flashloan",
      "outputs": [],
      "stateMutability": "nonpayable",
      "type": "function"
    },
    {
      "inputs": [],
      "name": "owner",
      "outputs": [
        {
          "internalType": "address",
          "name": "",
          "type": "address"
        }
      ],
      "stateMutability": "view",
      "type": "function"
    },
    {
      "inputs": [],
      "name": "renounceOwnership",
      "outputs": [],
      "stateMutability": "nonpayable",
      "type": "function"
    },
    {
      "inputs": [
        {
          "internalType": "address",
          "name": "newOwner",
          "type": "address"
        }
      ],
      "name": "transferOwnership",
      "outputs": [],
      "stateMutability": "nonpayable",
      "type": "function"
    },
    {
      "inputs": [
        {
          "internalType": "address",
          "name": "_assetAddress",
          "type": "address"
        }
      ],
      "name": "withdraw",
      "outputs": [],
      "stateMutability": "nonpayable",
      "type": "function"
    },
    {
      "stateMutability": "payable",
      "type": "receive"
    }
  ],
  "bytecode": "0x60806040523480156200001157600080fd5b5060405162001904380380620019048339818101604052810190620000379190620001d7565b80620000586200004c620000a160201b60201c565b620000a960201b60201c565b80600160006101000a81548173ffffffffffffffffffffffffffffffffffffffff021916908373ffffffffffffffffffffffffffffffffffffffff160217905550505062000209565b600033905090565b60008060009054906101000a900473ffffffffffffffffffffffffffffffffffffffff169050816000806101000a81548173ffffffffffffffffffffffffffffffffffffffff021916908373ffffffffffffffffffffffffffffffffffffffff1602179055508173ffffffffffffffffffffffffffffffffffffffff168173ffffffffffffffffffffffffffffffffffffffff167f8be0079c531659141344cd1fd0a4f28419497f9722a3daafe3b4186f6b6457e060405160405180910390a35050565b600080fd5b600073ffffffffffffffffffffffffffffffffffffffff82169050919050565b60006200019f8262000172565b9050919050565b620001b18162000192565b8114620001bd57600080fd5b50565b600081519050620001d181620001a6565b92915050565b600060208284031215620001f057620001ef6200016d565b5b60006200020084828501620001c0565b91505092915050565b6116eb80620002196000396000f3fe6080604052600436106100745760003560e01c80638da5cb5b1161004e5780638da5cb5b146100e9578063c72c4d1014610114578063ee8725581461013f578063f2fde38b146101685761007b565b806336c404771461008057806351cff8d9146100a9578063715018a6146100d25761007b565b3661007b57005b600080fd5b34801561008c57600080fd5b506100a760048036038101906100a29190610d4a565b610191565b005b3480156100b557600080fd5b506100d060048036038101906100cb9190610d4a565b6102c6565b005b3480156100de57600080fd5b506100e7610480565b005b3480156100f557600080fd5b506100fe610494565b60405161010b9190610d86565b60405180910390f35b34801561012057600080fd5b506101296104bd565b6040516101369190610e00565b60405180910390f35b34801561014b57600080fd5b5061016660048036038101906101619190610eb6565b6104e3565b005b34801561017457600080fd5b5061018f600480360381019061018a9190610d4a565b610551565b005b6101996105d4565b60006040518060200160405280600081525090506000670de0b6b3a764000090506000600160009054906101000a900473ffffffffffffffffffffffffffffffffffffffff1673ffffffffffffffffffffffffffffffffffffffff16630261bf8b6040518163ffffffff1660e01b8152600401602060405180830381865afa158015610229573d6000803e3d6000fd5b505050506040513d601f19601f8201168201806040525081019061024d9190610f53565b90508073ffffffffffffffffffffffffffffffffffffffff16635cffe9de308685876040518563ffffffff1660e01b815260040161028e949392919061101f565b600060405180830381600087803b1580156102a857600080fd5b505af11580156102bc573d6000803e3d6000fd5b5050505050505050565b6102ce6105d4565b60008073ffffffffffffffffffffffffffffffffffffffff168273ffffffffffffffffffffffffffffffffffffffff160361036f5760003090508073ffffffffffffffffffffffffffffffffffffffff163191503373ffffffffffffffffffffffffffffffffffffffff166108fc839081150290604051600060405180830381858888f19350505050158015610368573d6000803e3d6000fd5b5050610417565b8173ffffffffffffffffffffffffffffffffffffffff166370a08231306040518263ffffffff1660e01b81526004016103a89190610d86565b602060405180830381865afa1580156103c5573d6000803e3d6000fd5b505050506040513d601f19601f820116820180604052508101906103e99190611080565b905061041633828473ffffffffffffffffffffffffffffffffffffffff166106529092919063ffffffff16565b5b8173ffffffffffffffffffffffffffffffffffffffff163373ffffffffffffffffffffffffffffffffffffffff167f9207361cc2a04b9c7a06691df1eb87c6a63957ae88bf01d0d18c81e3d12720998360405161047491906110ad565b60405180910390a35050565b6104886105d4565b61049260006106d8565b565b60008060009054906101000a900473ffffffffffffffffffffffffffffffffffffffff16905090565b600160009054906101000a900473ffffffffffffffffffffffffffffffffffffffff1681565b6104ed308661079c565b84111561052f576040517f08c379a00000000000000000000000000000000000000000000000000000000081526004016105269061114b565b60405180910390fd5b6000838561053d919061119a565b90506105498682610887565b505050505050565b6105596105d4565b600073ffffffffffffffffffffffffffffffffffffffff168173ffffffffffffffffffffffffffffffffffffffff16036105c8576040517f08c379a00000000000000000000000000000000000000000000000000000000081526004016105bf90611240565b60405180910390fd5b6105d1816106d8565b50565b6105dc61092c565b73ffffffffffffffffffffffffffffffffffffffff166105fa610494565b73ffffffffffffffffffffffffffffffffffffffff1614610650576040517f08c379a0000000000000000000000000000000000000000000000000000000008152600401610647906112ac565b60405180910390fd5b565b6106d38363a9059cbb60e01b84846040516024016106719291906112cc565b604051602081830303815290604052907bffffffffffffffffffffffffffffffffffffffffffffffffffffffff19166020820180517bffffffffffffffffffffffffffffffffffffffffffffffffffffffff8381831617835250505050610934565b505050565b60008060009054906101000a900473ffffffffffffffffffffffffffffffffffffffff169050816000806101000a81548173ffffffffffffffffffffffffffffffffffffffff021916908373ffffffffffffffffffffffffffffffffffffffff1602179055508173ffffffffffffffffffffffffffffffffffffffff168173ffffffffffffffffffffffffffffffffffffffff167f8be0079c531659141344cd1fd0a4f28419497f9722a3daafe3b4186f6b6457e060405160405180910390a35050565b600073eeeeeeeeeeeeeeeeeeeeeeeeeeeeeeeeeeeeeeee73ffffffffffffffffffffffffffffffffffffffff168273ffffffffffffffffffffffffffffffffffffffff1603610804578273ffffffffffffffffffffffffffffffffffffffff16319050610881565b8173ffffffffffffffffffffffffffffffffffffffff166370a08231846040518263ffffffff1660e01b815260040161083d9190610d86565b602060405180830381865afa15801561085a573d6000803e3d6000fd5b505050506040513d601f19601f8201168201806040525081019061087e9190611080565b90505b92915050565b6000600160009054906101000a900473ffffffffffffffffffffffffffffffffffffffff1673ffffffffffffffffffffffffffffffffffffffff1663ed6ff7606040518163ffffffff1660e01b8152600401602060405180830381865afa1580156108f6573d6000803e3d6000fd5b505050506040513d601f19601f8201168201806040525081019061091a9190611333565b90506109278184846109fb565b505050565b600033905090565b6000610996826040518060400160405280602081526020017f5361666545524332303a206c6f772d6c6576656c2063616c6c206661696c65648152508573ffffffffffffffffffffffffffffffffffffffff16610b2c9092919063ffffffff16565b90506000815111156109f657808060200190518101906109b69190611398565b6109f5576040517f08c379a00000000000000000000000000000000000000000000000000000000081526004016109ec90611437565b60405180910390fd5b5b505050565b73eeeeeeeeeeeeeeeeeeeeeeeeeeeeeeeeeeeeeeee73ffffffffffffffffffffffffffffffffffffffff168273ffffffffffffffffffffffffffffffffffffffff1603610afb5760008373ffffffffffffffffffffffffffffffffffffffff1682604051610a6890611488565b60006040518083038185875af1925050503d8060008114610aa5576040519150601f19603f3d011682016040523d82523d6000602084013e610aaa565b606091505b505090506001151581151514610af5576040517f08c379a0000000000000000000000000000000000000000000000000000000008152600401610aec906114e9565b60405180910390fd5b50610b27565b610b2683828473ffffffffffffffffffffffffffffffffffffffff166106529092919063ffffffff16565b5b505050565b6060610b3b8484600085610b44565b90509392505050565b606082471015610b89576040517f08c379a0000000000000000000000000000000000000000000000000000000008152600401610b809061157b565b60405180910390fd5b610b9285610c58565b610bd1576040517f08c379a0000000000000000000000000000000000000000000000000000000008152600401610bc8906115e7565b60405180910390fd5b6000808673ffffffffffffffffffffffffffffffffffffffff168587604051610bfa9190611638565b60006040518083038185875af1925050503d8060008114610c37576040519150601f19603f3d011682016040523d82523d6000602084013e610c3c565b606091505b5091509150610c4c828286610c7b565b92505050949350505050565b6000808273ffffffffffffffffffffffffffffffffffffffff163b119050919050565b60608315610c8b57829050610cdb565b600083511115610c9e5782518084602001fd5b816040517f08c379a0000000000000000000000000000000000000000000000000000000008152600401610cd29190611693565b60405180910390fd5b9392505050565b600080fd5b600080fd5b600073ffffffffffffffffffffffffffffffffffffffff82169050919050565b6000610d1782610cec565b9050919050565b610d2781610d0c565b8114610d3257600080fd5b50565b600081359050610d4481610d1e565b92915050565b600060208284031215610d6057610d5f610ce2565b5b6000610d6e84828501610d35565b91505092915050565b610d8081610d0c565b82525050565b6000602082019050610d9b6000830184610d77565b92915050565b6000819050919050565b6000610dc6610dc1610dbc84610cec565b610da1565b610cec565b9050919050565b6000610dd882610dab565b9050919050565b6000610dea82610dcd565b9050919050565b610dfa81610ddf565b82525050565b6000602082019050610e156000830184610df1565b92915050565b6000819050919050565b610e2e81610e1b565b8114610e3957600080fd5b50565b600081359050610e4b81610e25565b92915050565b600080fd5b600080fd5b600080fd5b60008083601f840112610e7657610e75610e51565b5b8235905067ffffffffffffffff811115610e9357610e92610e56565b5b602083019150836001820283011115610eaf57610eae610e5b565b5b9250929050565b600080600080600060808688031215610ed257610ed1610ce2565b5b6000610ee088828901610d35565b9550506020610ef188828901610e3c565b9450506040610f0288828901610e3c565b935050606086013567ffffffffffffffff811115610f2357610f22610ce7565b5b610f2f88828901610e60565b92509250509295509295909350565b600081519050610f4d81610d1e565b92915050565b600060208284031215610f6957610f68610ce2565b5b6000610f7784828501610f3e565b91505092915050565b610f8981610e1b565b82525050565b600081519050919050565b600082825260208201905092915050565b60005b83811015610fc9578082015181840152602081019050610fae565b60008484015250505050565b6000601f19601f8301169050919050565b6000610ff182610f8f565b610ffb8185610f9a565b935061100b818560208601610fab565b61101481610fd5565b840191505092915050565b60006080820190506110346000830187610d77565b6110416020830186610d77565b61104e6040830185610f80565b81810360608301526110608184610fe6565b905095945050505050565b60008151905061107a81610e25565b92915050565b60006020828403121561109657611095610ce2565b5b60006110a48482850161106b565b91505092915050565b60006020820190506110c26000830184610f80565b92915050565b600082825260208201905092915050565b7f496e76616c69642062616c616e63652c207761732074686520666c6173684c6f60008201527f616e207375636365737366756c3f000000000000000000000000000000000000602082015250565b6000611135602e836110c8565b9150611140826110d9565b604082019050919050565b6000602082019050818103600083015261116481611128565b9050919050565b7f4e487b7100000000000000000000000000000000000000000000000000000000600052601160045260246000fd5b60006111a582610e1b565b91506111b083610e1b565b92508282019050808211156111c8576111c761116b565b5b92915050565b7f4f776e61626c653a206e6577206f776e657220697320746865207a65726f206160008201527f6464726573730000000000000000000000000000000000000000000000000000602082015250565b600061122a6026836110c8565b9150611235826111ce565b604082019050919050565b600060208201905081810360008301526112598161121d565b9050919050565b7f4f776e61626c653a2063616c6c6572206973206e6f7420746865206f776e6572600082015250565b60006112966020836110c8565b91506112a182611260565b602082019050919050565b600060208201905081810360008301526112c581611289565b9050919050565b60006040820190506112e16000830185610d77565b6112ee6020830184610f80565b9392505050565b600061130082610cec565b9050919050565b611310816112f5565b811461131b57600080fd5b50565b60008151905061132d81611307565b92915050565b60006020828403121561134957611348610ce2565b5b60006113578482850161131e565b91505092915050565b60008115159050919050565b61137581611360565b811461138057600080fd5b50565b6000815190506113928161136c565b92915050565b6000602082840312156113ae576113ad610ce2565b5b60006113bc84828501611383565b91505092915050565b7f5361666545524332303a204552433230206f7065726174696f6e20646964206e60008201527f6f74207375636365656400000000000000000000000000000000000000000000602082015250565b6000611421602a836110c8565b915061142c826113c5565b604082019050919050565b6000602082019050818103600083015261145081611414565b9050919050565b600081905092915050565b50565b6000611472600083611457565b915061147d82611462565b600082019050919050565b600061149382611465565b9150819050919050565b7f436f756c646e2774207472616e73666572204554480000000000000000000000600082015250565b60006114d36015836110c8565b91506114de8261149d565b602082019050919050565b60006020820190508181036000830152611502816114c6565b9050919050565b7f416464726573733a20696e73756666696369656e742062616c616e636520666f60008201527f722063616c6c0000000000000000000000000000000000000000000000000000602082015250565b60006115656026836110c8565b915061157082611509565b604082019050919050565b6000602082019050818103600083015261159481611558565b9050919050565b7f416464726573733a2063616c6c20746f206e6f6e2d636f6e7472616374000000600082015250565b60006115d1601d836110c8565b91506115dc8261159b565b602082019050919050565b60006020820190508181036000830152611600816115c4565b9050919050565b600061161282610f8f565b61161c8185611457565b935061162c818560208601610fab565b80840191505092915050565b60006116448284611607565b915081905092915050565b600081519050919050565b60006116658261164f565b61166f81856110c8565b935061167f818560208601610fab565b61168881610fd5565b840191505092915050565b600060208201905081810360008301526116ad818461165a565b90509291505056fea26469706673582212202da277ca09994d6548d97ccf5455609fc7478b0ef778b80452066cbaa4a7184f64736f6c63430008110033",
  "linkReferences": {},
  "deployedLinkReferences": {}
}